:08008F00FFFF007E7E00FFFF71
:10000300E4F508AF087480A807088002C313D8FC7E
:10001300F50BE4F509E4F50AC37407950AFFE494C4
:1000230000FE748F2FF58274003EF583E493F5A0F0
:10003300850B807F017E00120063E50BC313F50B74
:10004300E4F580050AE50AC3940840CC0509E509EF
:10005300C3941440C00508E508C3940840A580A0D4
:10006300E4FDFCC3ED9FEC9E5015E4FBFA0BBB00D3
:0F007300010AEB64C84A70F50DBD00010C80E472
:01008200225B
:0300000002008378
:0C008300787FE4F6D8FD75810B020003C5
:00000001FF
