:1000E200FFFF007E7E00FFFFFFFFDEBE00FEFEFF81
:1000F200FFB17676768EFFFFFFFF6E6E6E6E81FF2A
:10010200FFF3EBDBBB00FBFFFFFF0E6E6E71FFFF29
:10011200FFFF006E6E60FFFFFFFF1F7F7F00FFFF8C
:10012200FFFF00666600FFFFFFFF0E6E6E00FFFF1F
:10013200FFC0B77777B7C0FFFF0066666699FFFF1B
:10014200FFC3BD7E7E7EBDFFFF007E7E7EBDC3FF00
:10015200FF7DBBC701C7BB7DEBEB80EB80EBEBFF09
:0A016200C0F9A4B0999282F88090D1
:10016C007FFFC2902094027F0D2095027F0C209679
:10017C00027F0B2097027F0AD290C2912094027FBB
:10018C000F2095027F092096027F062097027F039D
:10019C00D291C292209402E4FF2095027F0820960F
:1001AC00027F052097027F02D292C2932094027F95
:1001BC000E2095027F072096027F042097027F0174
:0201CC00D293CC
:0101CE00220E
:10000300E4F50812016CEFF460028F08E508C3946D
:100013000A4066E4F50BE50BC3940850E6AF0B7496
:1000230080A807088002C313D8FCF50CE4F50AE4A2
:10003300F509E50875F008A424E2F582E43400F537
:1000430083E5822509F582E43583F583E493F5A0FE
:10005300850C807F017E001201CFE50CC313F50CE4
:10006300E4F5800509E509C3940840C6050AE50AD5
:10007300C3943240BA050B809DE4F50BE50BC394A2
:10008300085080AF0B7480A807088002C313D8FC04
:10009300F50CE4F50AE4F509E50875F008A424E293
:1000A300F582E43400F583E5822509F582E435839E
:1000B300F583E493F5A0850C807F017E001201CFC8
:1000C300E50CC313F50CE4F5800509E509C39408B1
:0F00D30040C6050AE50AC3943240BA050B809D6A
:1001CF00E4FDFCC3ED9FEC9E5015E4FBFA0BBB0066
:0F01DF00010AEB64C84A70F50DBD00010C80E405
:0101EE0022EE
:030000000201EF0B
:0C01EF00787FE4F6D8FD75810C02000357
:00000001FF
