:10006000FFFF007E7E00FFFFFFFFDEBE00FEFEFF03
:10007000FFB17676768EFFFFFFFF6E6E6E6E81FFAC
:10008000FFF3EBDBBB00FBFFFFFF0E6E6E71FFFFAC
:10009000FFFF006E6E60FFFFFFFF1F7F7F00FFFF0F
:1000A000FFFF00666600FFFFFFFF0E6E6E00FFFFA2
:10000300E4F509E4F50AE4F508E50975F008A42424
:1000130060F582E43400F583E5822508F582E43552
:1000230083F583E493F5A0AF087480A807088002E2
:10003300C313D8FCF5807F017E001200B0E4F58085
:100043000508E508C3940840C0050AE50AC394649B
:0D00530040B40509E509C3940A40A880A344
:1000B000E4FDFCC3ED9FEC9E5015E4FBFA0BBB0086
:0F00C000010AEB64C84A70F50DBD00010C80E425
:0100CF00220E
:030000000200D02B
:0C00D000787FE4F6D8FD75810A02000379
:00000001FF
