:10000000020184AB07AA067C277D101200EB8E0C40
:100010008F0D7C037DE8AF03AE021200EB7C007D08
:100020000A1200EB8C0E8D0F7C007D64AF03AE02D4
:100030001200EB7C007D0A1200EB8C108D117C000D
:100040007D64AF03AE021200EB7E007F0ACFCDCFFE
:10005000CECCCE1200EB8E128F13AE02AF037C001B
:100060007D0A1200EB74902DF58274013CF583E457
:1000700093F580D2A07F017E00120164C2A074902B
:100080002513F58274013512F583E493F580D2A12E
:100090007F017E00120164C2A174902511F5827463
:1000A000013510F583E493F580D2A27F017E001222
:1000B0000164C2A27490250FF5827401350EF58398
:1000C000E493F580D2A37F017E00120164C2A37481
:1000D00090250DF5827401350CF583E493F580D2FB
:1000E000A47F017E00120164C2A422BC000BBE00EA
:1000F00029EF8DF084FFADF022E4CCF875F008EF25
:100100002FFFEE33FEEC33FCEE9DEC984005FCEE49
:100110009DFE0FD5F0E9E4CEFD22EDF8F5F0EE847A
:1001200020D21CFEADF075F008EF2FFFED33FD403F
:1001300007985006D5F0F222C398FD0FD5F0EA22B9
:10014000E58954F04405F589D28C858C09858A08A7
:10015000E509B58CF5F50AE508F50BAF0BAE0A120B
:10016000000380E6E4FDFCC3ED9FEC9E5015E4FB2C
:10017000FA0BBB00010AEB64C84A70F50DBD000123
:100180000C80E422787FE4F6D8FD758113020140EB
:0A019000C0F9A4B0999282F88090A3
:00000001FF
