:1000DD00FFFF007E7E00FFFFFFFFDEBE00FEFEFF86
:1000ED00FFB17676768EFFFFFFFF6E6E6E6E81FF2F
:1000FD00FFF3EBDBBB00FBFFFFFF0E6E6E71FFFF2F
:10010D00FFFF006E6E60FFFFFFFF1F7F7F00FFFF91
:10011D00FFFF00666600FFFFFFFF0E6E6E00FFFF24
:10012D00FFC0B77777B7C0FFFF0066666699FFFF20
:10013D00FFC3BD7E7E7EBDFFFF007E7E7EBDC3FF05
:10014D00FF7DBBC701C7BB7DEBEB80EB80EBEBFF0E
:0A015D00C0F9A4B0999282F88090D6
:100167007FFFC2902094027F0D2095027F0C20967E
:10017700027F0B2097027F0AD290C2912094027FC0
:100187000F2095027F092096027F062097027F03A2
:10019700D291C292209402E4FF2095027F08209614
:1001A700027F052097027F02D292C2932094027F9A
:1001B7000E2095027F072096027F042097027F0179
:0201C700D293D1
:0101C9002213
:10000300E4F508F50AE4F5090509E509B408F9AFCB
:100013000A7401A807088002C333D8FCF5A0AF090E
:100023007480A807088002C313D8FCF5807FC87EBC
:10003300001201CAE4F580050AE50AC3940840C525
:10004300120167EFF460028F08E508C3940A404584
:10005300E4F509E509C3940850E6E50875F008A43A
:1000630024DDF582E43400F583E5822509F582E495
:100073003583F583E493F5A0AF097480A80708805E
:1000830002C313D8FCF5807F017E001201CAE4F598
:1000930080050980BEE4F509E509C3940850A1E58C
:1000A3000875F008A424DDF582E43400F583E582C5
:1000B3002509F582E43583F583E493F5A0AF09744C
:1000C30080A807088002C313D8FCF5807F017E0057
:0A00D3001201CAE4F580050980BEA1
:1001CA00E4FDFCC3ED9FEC9E5015E4FBFA0BBB006B
:0F01DA00010AEB64C84A70F50DBD00010C80E40A
:0101E90022F3
:030000000201EA10
:0C01EA00787FE4F6D8FD75810A0200035E
:00000001FF
