:100066004E6861702076616F206B79207475206907
:100076006E207468756F6E6720626174206B793AC2
:0800860020002D3E000D0A00D0
:100003001200CE7BFF7A0079661200AE1200F8EF81
:1000130060FA1200FE8F0874E02508F5087BFF7A6A
:100023000079881200AEAF081200F07BFF7A0079E6
:060033008B1200AE80CD2F
:10008E00E4FDFCC3ED9FEC9E5015E4FBFA0BBB00A8
:0F009E00010AEB64C84A70F50DBD00010C80E447
:0100AD002230
:1000CE00C29FD29EE589540F4420F589758DFDD2CD
:0600DE008ED299D29C2293
:0800F0003099FDC2998F99229D
:0600AE008B098A0A890B90
:1000B400AB09AA0AA90B850C82758300120039FFCB
:0900C40060071200F0050C80E752
:0100CD002210
:0600F800A298E433FF2290
:0500FE00C298AF992239
:030000000200E417
:0C00E400787FE4F6D8FD75810C02000363
:10003900BB010CE58229F582E5833AF583E022507C
:1000490006E92582F8E622BBFE06E92582F8E222C6
:0D005900E58229F582E5833AF583E49322E0
:00000001FF
