:0700000002000E01080A00D6
:10000B000200B2787FE4F6D8FD7581080200550234
:10001B00009AE493A3F8E493A34003F68001F2085B
:10002B00DFF48029E493A3F85407240CC8C333C42A
:10003B00540F4420C8834004F456800146F6DFE495
:10004B00800B0102040810204080900003E47E0125
:10005B009360BCA3FF543F30E509541FFEE493A308
:10006B0060010ECF54C025E060A840B8E493A3FA1A
:10007B00E493A3F8E493A3C8C582C8CAC583CAF0A6
:10008B00A3C8C582C8CAC583CADFE9DEE780BEE55F
:10009B008954F04401F589758C4CE4F58AD2A9D2C8
:1000AB00AFD28CF5A080FE758C4C758A00D50806F6
:0700BB0075080A63A0FF3283
:00000001FF
