:08000000020413D28CD2A922E4
:10000B000203F8020162EC5D046005E85904700319
:10001B00020158120123580460F6EC4860F2EC70B0
:10002B0004FDFEFF22C860DB2481C85009C3986021
:10003B0002500602015F9850CAF582E9294B4A70BB
:10004B0005AB8202014E75F0007C1A7880C3EF9BE2
:10005B00EE9AED99400DC3EF9BFFEE9AFEED99FDE5
:10006B00E842F0DC23ACF0D0E0FFD0E0FED0E0FDC6
:10007B00AB8220E7101BEB60BAEC2CFCEF33FFEEEE
:10008B0033FEED33FD02013AE803F830E705C0F02B
:10009B0075F000EF2FFFEE33FEED33FD40B830E788
:1000AB00C280AA75F020800E75F010800575F008DF
:1000BB007D007E007F003392D530D50312023BECDE
:1000CB00334010EF33FFEE33FEED33FDEC33FCD555
:1000DB00F0ED22E5F0247EA2D513CC92E7CDCEFF36
:1000EB0022EDD2E7CD33EC3392D524814006E4FFE9
:1000FB00FEFDFC22FCE4CFCECDCC24E0501174FFEE
:10010B0080EDC3CC13CCCD13CDCE13CECF13CF04F8
:10011B0070F030D5DE02023BE9D2E7C933E833F8A1
:10012B0092D5EDD2E7CD33EC33FC5002B2D522ECB5
:10013B0030E7100FBF000C0EBE00080DBD00040B06
:10014B00EB6014A2D5EB13FCED92E7FD2274FFFCE0
:10015B00FDFEFF22E480F8A2D574FF13FC7D80E442
:10016B0080EF75F008758200EF2FFFEE33FECD3375
:10017B00CDCC33CCC58233C5829BED9AEC99E5820D
:10018B0098400CF582EE9BFEED9AFDEC99FC0FD599
:10019B00F0D6E4CEFBE4CDFAE4CCF9A88222B80089
:1001AB00C1B90059BA002DEC8BF084CFCECDFCE554
:1001BB00F0CBF97818EF2FFFEE33FEED33FDEC3378
:1001CB00FCEB33FB10D703994004EB99FB0FD8E5FD
:1001DB00E4F9FA227818EF2FFFEE33FEED33FDEC46
:1001EB0033FCC933C910D7059BE99A4007EC9BFC3C
:1001FB00E99AF90FD8E0E4C9FAE4CCFB2275F010C8
:10020B00EF2FFFEE33FEED33FDCC33CCC833C810EC
:10021B00D7079BEC9AE899400AED9BFDEC9AFCE81A
:10022B0099F80FD5F0DAE4CDFBE4CCFAE4C8F92267
:10023B00C3E49FFFE49EFEE49DFDE49CFC22E8608A
:10024B0010ECA2E713FCED13FDEE13FEEF13FFD83A
:10025B00F022EC8EF0A4CCC5F0CCCDF8EFA4CEC53B
:10026B00F02DFDE43CFCE8A42EC8C5F03DFDE43CBC
:10027B00FCEFA4FFE5F028FEE43DFDE43CFC22D2BC
:10028B0090E58954F04401F589D2A9D2AFAD07AC02
:10029B0006E41200B37B8A7AE3798A783F12001165
:1002AB001200EC8E0E8F0FE50EC313F50AE50F133C
:1002BB00F50BC3E50F950BF509E50E950AF508AEA1
:1002CB000AAF0BAB07AA06E4C39BFFE49AFE7401CB
:1002DB009400FDE49400FC78081202498F10E4C3EB
:1002EB009BFFE48F11AE08AF09AB07AA06C39BFFB8
:1002FB00E49AFE74019400FDE49400FC7808120269
:10030B00498F0CE4C39BFF8F0D85108C85118A22BE
:10031B00EF7006C290C2A98007BF6404D290C2A935
:10032B00AC0EAD0F7E0012025DE47B64FAF9F8129D
:10033B0001A98E0A8F0BC3E50F950BF509E50E95F9
:10034B000AF508AB07AA06E4C39BFFE49AFE740107
:10035B009400FDE49400FC78081202498F10E4C36A
:10036B009BFFE48F11AE08AF09AB07AA06C39BFF37
:10037B00E49AFE74019400FDE49400FC78081202E8
:10038B00498F0CE4C39BFF8F0D22E4F512F513F597
:10039B00807FE87E0312028AE4FF12031B12000324
:1003AB007F327E001203D8120003E512700E740523
:1003BB002513F513B4640F751201800A74FB251312
:1003CB00F5137002F512AF1312031B80D3E4FDFC7F
:1003DB00C3ED9FEC9E5015E4FBFA0BBB00010AEB3F
:1003EB0064C84A70F50DBD00010C80E422B2902068
:1003FB00900BC28C850C8C850D8AD28C32C28C856D
:10040B00108C85118AD28C32787FE4F6D8FD7581F9
:04041B001302039530
:00000001FF
