:0A008F00C0F9A4B0999282F88090A5
:10000300E4F50AE50A75F00A8485F009E50A75F056
:100013000A84F50870037508FFE4F50BF50CE50990
:1000230090008F93F580D2A17F017E00120063C2FE
:10003300A1E50890008F93F580D2A07F017E001286
:100043000063C2A0050CE50C7002050BC39432E5F6
:100053000B940040C9050AE50AC3946440A580A037
:10006300E4FDFCC3ED9FEC9E5015E4FBFA0BBB00D3
:0F007300010AEB64C84A70F50DBD00010C80E472
:01008200225B
:0300000002008378
:0C008300787FE4F6D8FD75810C020003C4
:00000001FF
